S01400005368696674457874656E73652E7372656336
S11300000C942A000C9447000C9447000C9447006D
S11300100C9447000C9447000C9447000C94470040
S11300200C9447000C9447000C9447000C94470030
S11300300C9447000C9447000C9447000C94470020
S11300400C9447000C9447000C9447000C94470010
S11300500C94470011241FBECFE5D8E0DEBFCDBF0E
S113006011E0A0E6B0E0E4E5F3E002C005900D92F3
S1130070A23AB107D9F711E0A2EAB1E001C01D929A
S1130080AF3BB107E1F70E948A000C94A8010C94DD
S113009000008932F0F56623F1F090E0DC01AA0F4C
S11300A0BB1FAA0FBB1FAA0FBB1FA81BB90BAE57C0
S11300B0BF4FED91FC911197408121E030E0C901DF
S11300C016960C90169702C0880F991F0A94E2F7AF
S11300D0842B8083089590E0DC01AA0FBB1FAA0F34
S11300E0BB1FAA0FBB1FA81BB90BAE57BF4FED9187
S11300F0FC911197408121E030E0C90116960C90E3
S1130100169702C0880F991F0A94E2F780958423FA
S11301108083089586E260E00E94490087E261E0FE
S11301200E944900A6E6B0E0AD0162E870E001E09B
S113013010E01BC08932C8F490E09C01220F331FE9
S1130140220F331F220F331F281B390BFB01E20F31
S1130150F31FC081D1812881C801068002C0880FA5
S1130160991F0A94E2F7822B8883FA018191AF01E7
S1130170882301F71DC08932F8F490E09C01220F16
S1130180331F220F331F220F331F281B390BFA0191
S1130190E20FF31FC281D3812881CB01068002C004
S11301A0880F991F0A94E2F780958223888304C0FC
S11301B042E850E061E070E08D918823E1F60F2E73
S11301C0F2E86F2EF0E07F2EF02D0F2EF3E04F2E8D
S11301D05524F02D0F2EF0E6AF2EF0E0BF2EF02DBB
S11301E001E010E00F2EF2E8CF2EF0E0DF2EF02D2C
S11301F00F2EF7E13F2EF02D0F2EF6E6EF2EF0E056
S1130200FF2EF02D0F2EF7E08F2E9924F02DD99A82
S1130210D301A2018E91F50190818932D8F598011C
S1130220042E02C0220F331F0A94E2F72923C9F0D7
S113023090E0FC01EE0FFF1FEE0FFF1FEE0FFF1FFC
S1130240E81BF90BEC0DFD1DC281D3812881C80187
S1130250068002C0880F991F0A94E2F7822B8883D4
S113026019C090E0FC01EE0FFF1FEE0FFF1FEE0F11
S1130270FF1FE81BF90BEC0DFD1DC281D381288102
S1130280C801068002C0880F991F0A94E2F780957E
S11302908223888341505040FFEF4F3F5F0709F0AE
S11302A0B9CFE501532D452FB401F701E40FF11D3A
S11302B0808199818932D8F59801062E02C0220FD7
S11302C0331F0A94E2F72923C9F090E0FC01EE0FF2
S11302D0FF1FEE0FFF1FEE0FFF1FE81BF90BEC0DC6
S11302E0FD1DA281B3812C91C801068002C0880F34
S11302F0991F0A94E2F7822B8C9319C090E0FC01B9
S1130300EE0FFF1FEE0FFF1FEE0FFF1FE81BF90B91
S1130310EC0DFD1DA281B3812C91C801068002C0A1
S1130320880F991F0A94E2F7809582238C93415099
S1130330615070408FEF6F3F780709F0B6CF585087
S113034021965F3F09F0AFCFD9981092A2015FCFF9
S1070350F894FFCF4B
S1130354FFFFFFFFA30101020304050607080F10B2
S11303641112131415161718191A1B1C1D212223F4
S11303742425000000000000003700380036000087
S113038437003800360001370038003600023700E1
S113039438003600033700380036000437003800CC
S11303A436000537003800360006370038003600BA
S11303B4070000000000000000000000000000002E
S11303C40000000000000000000000000000000025
S11303D400000000310032003000003100320030EF
S11303E400013100320030000231003200300003D9
S11303F43100320030000431003200300005310095
S11304043200300006310032003000073400350079
S11304143300003400350033000134003500330068
S1130424023400350033000334003500330004344F
S1130434003500330005340035003300063400353C
S1130444003300070000000000000000000000006A
S11304540000000000000000003A003B00390007DF
S11304643A003B003900063A003B003900053A00E3
S11304743B003900043A003B003900033A003B00D6
S11304843900023A003B003900013A003B003900CC
S1050494000062
S9030000FC
