S0150000536869667452656769737465722E73726563CC
S11300000C9434000C944E0F0C9451000C94510039
S11300100C9451000C9451000C9451000C94510018
S11300200C9451000C9451000C9451000C94510008
S11300300C9451000C9451000C9451000C945100F8
S11300400C9451000C9451000C9451000C945100E8
S11300500C9451000C9451000C9451000C945100D8
S11300600C9451000C94510011241FBECFEFD8E022
S1130070DEBFCDBF12E0A0E0B1E0E4E9F1E202C0EE
S113008005900D92AA38B107D9F712E0AAE8B2E0B8
S113009001C01D92A53AB107E1F70E948F0F0C949D
S11300A0C8100C9400009093C5008093C40088E0AD
S11300B08093C1008EE08093C200519A0895CF933B
S11300C0DF93239A2498C7E0D1E04EEB51E061E03E
S11300D070E01BC08D31C8F490E09C01220F331FE7
S11300E0220F331F220F331F281B390BFA01E20F93
S11300F0F31FA081B1812C91CB01068002C0880F2F
S1130100991F0A94E2F7822B8C938991882311F723
S1130110C2E0D1E04EEB51E061E070E01BC08D31F4
S1130120C8F490E09C01220F331F220F331F220FCB
S1130130331F281B390BFA01E20FF31FA081B18191
S11301402C91CB01068002C0880F991F0A94E2F714
S1130150822B8C938991882311F780E091EE0E9481
S11301605300DF91CF9108952F923F924F925F9267
S11301706F927F928F929F92AF92BF92CF92DF92B3
S1130180EF92FF920F931F93CF93DF93CDB7DEB718
S11301902F970FB6F894DEBF0FBECDBF9B878A871B
S11301A06C83198644969D878C8782E091E08D83C9
S11301B09E830F2EFEEBCF2EF1E0DF2EF02D61E0BB
S11301C070E000EC10E06F83788789839A830F2EA8
S11301D0F7E04F2EF1E05F2EF02D59C1913079F008
S11301E0913028F09230A1F0933019F51AC085307F
S11301F010F01C921EC0FA0120812C931AC08A3080
S113020010F01C9216C0FA01359720812C9311C06E
S11302108F3010F01C920DC0FA013A9720812C9374
S113022008C0843110F01C9204C0FA013F97208169
S11302302C938F5F4F5F5F4F1196893179F6FC8164
S1130240FF2309F005C11DC18D31C8F490E0FC0104
S1130250EE0FFF1FEE0FFF1FEE0FFF1FE81BF90B42
S1130260EC0DFD1DA281B3812C91CB01068002C04F
S1130270880F991F0A94E2F7809582238C93D70103
S11302808D917D01882301F72B9A7501FA019191D3
S1130290D8018C9185FFFCCFD4019C93EE15FF050A
S11302A0B1F72B981C99FECF40E050E05F864E8654
S11302B0EE85FF852191FF87EE87D7013C912D3193
S11302C008F03EC0FB01042E02C0EE0FFF1F0A948B
S11302D0E2F7CF018323D1F0822F90E0FC01EE0FEF
S11302E0FF1FEE0FFF1FEE0FFF1FE81BF90BEC0DB6
S11302F0FD1DA281B3812C91CB01068002C0880F21
S1130300991F0A94E2F7822B8C931AC0822F90E0F3
S1130310FC01EE0FFF1FEE0FFF1FEE0FFF1FE81B88
S1130320F90BEC0DFD1DA281B3812C91CB0106804C
S113033002C0880F991F0A94E2F7809582238C9358
S11303404F5F5F4F4830510509F0B2CFD3018D9113
S11303503D018D31C0F490E0FC01EE0FFF1FEE0F64
S1130360FF1FEE0FFF1FE81BF90BEC0DFD1DA28113
S1130370B3812C91CB01068002C0880F991F0A9487
S1130380E2F7822B8C93EFE1FEE43197F1F700C0A2
S1130390000049815A811BC08D31C8F490E0FC01F2
S11303A0EE0FFF1FEE0FFF1FEE0FFF1FE81BF90BF1
S11303B0EC0DFD1DA281B3812C91CB01068002C0FE
S11303C0880F991F0A94E2F7809582238C93DA01AF
S11303D08D91AD01882301F7A2011BC08D31C8F4B2
S11303E090E0FC01EE0FFF1FEE0FFF1FEE0FFF1F4B
S11303F0E81BF90BEC0DFD1DA281B3812C91CB01FF
S1130400068002C0880F991F0A94E2F78095822320
S11304108C93FA018191AF01882301F785E090E084
S1130420A80EB91E6214730431F0A5014450504063
S1130430E980FA8024CF9F8190930001A885A0933E
S11304400101BB81BF5FBB83EC81BE1789F419C076
S11304501B820F2EF2E02F2EF1E03F2EF02D85E0CF
S113046090E0280E391E0F2EF6EC8F2E9924F02DD5
S11304706D807E800F2EF0E9AF2EF2E0BF2EF02DBE
S1130480D4CF99859F5F9987943009F419C14C851D
S11304905D85ACE8B2E080E09985A0CE8D31C8F4EA
S11304A090E0FC01EE0FFF1FEE0FFF1FEE0FFF1F8A
S11304B0E81BF90BEE0DFF1DA281B3812C91CB013A
S11304C0068002C0880F991F0A94E2F78095822360
S11304D08C93D6018D916D01882301F72B9A6401C9
S11304E0FA019191D8018C9185FFFCCFD5019C93A1
S11304F0EC15FD05B1F72B981C99FECFD20140E015
S113050050E08D91F60190818D3108F052C0FB01CD
S1130510042E02C0EE0FFF1F0A94E2F79F01292365
S113052021F190E0FC01EE0FFF1FEE0FFF1FEE0F15
S1130530FF1FE81BF90BCF018E0D9F1D9F878E8730
S1130540FC010280F381E02DFD87EC872081CB0143
S1130550EE85FF85068002C0880F991F0A94E2F792
S1130560822BEC85FD85808324C090E0FC01EE0F96
S1130570FF1FEE0FFF1FEE0FFF1FE81BF90BCF014C
S11305808E0D9F1D9F878E87FC010280F381E02DD5
S1130590FD87EC872081CB01EE85FF85068002C0B4
S11305A0880F991F0A94E2F780958223EC85FD85D4
S11305B080834F5F5F4F4830510509F0A2CFD301CC
S11305C08D913D018D31C0F490E0FC01EE0FFF1FD1
S11305D0EE0FFF1FEE0FFF1FE81BF90BEE0DFF1DC3
S11305E0A281B3812C91CB01068002C0880F991F90
S11305F00A94E2F7822B8C93EFE1FEE43197F1F752
S113060000C0000049815A811BC08D31C8F490E0BC
S1130610FC01EE0FFF1FEE0FFF1FEE0FFF1FE81B85
S1130620F90BEE0DFF1DA281B3812C91CB01068045
S113063002C0880F991F0A94E2F7809582238C9355
S1130640DA018D91AD01882301F7A2011BC08D3120
S1130650C8F490E0FC01EE0FFF1FEE0FFF1FEE0F3A
S1130660FF1FE81BF90BEE0DFF1DA281B3812C9136
S1130670CB01068002C0880F991F0A94E2F7809587
S113068082238C93FA018191AF01882301F785E0DD
S113069090E0880E991E6214730431F0A401445052
S11306A05040C980DA8015CF9C8190930001AD81C0
S11306B0A0930101BB81B150BB83BB2369F535C055
S11306C0E2E3EB838A859B8504969B878A870F2EBA
S11306D0F2E02F2EF1E03F2EF02DA5E0B0E02A0E3F
S11306E03B1E0F2EFEEBEF2EF1E0FF2EF02D61E00E
S11306F070E06C837D8300EC10E00F2EF6ECAF2EDF
S1130700BB24F02DE2E0F1E0E983FA830F2EF7E059
S11307104F2EF1E05F2EF02D0F2EF2E06F2EF1E060
S11307207F2EF02D8A849B84B9CF2F960FB6F89430
S1130730DEBF0FBECDBFDF91CF911F910F91FF9010
S1130740EF90DF90CF90BF90AF909F908F907F906D
S11307506F905F904F903F902F9008952F923F920B
S11307604F925F926F927F928F929F92AF92BF92BD
S1130770CF92DF92EF92FF920F931F93CF93DF9369
S1130780CDB7DEB76B970FB6F894DEBF0FBECDBF03
S11307909E8B8D8B6F8724E12B8304969F838E839E
S11307A042E051E04C835D830F2EFEEBCF2EF1E04F
S11307B0DF2EF02D61E070E068877C8700EC10E0AC
S11307C00F2EF6ECAF2EBB24F02D0F2EF7E02F2EBC
S11307D0F1E03F2EF02D59832A82532C442E20C160
S11307E08D31F8F490E0FC01EE0FFF1FEE0FFF1FB8
S11307F0EE0FFF1FE81BF90BCF018C0D9D1DFC01B3
S1130800E280F380F70120812B01FC01068002C005
S1130810440C551C0A94E2F7C20180958223F70127
S113082080838D918823E1F6432E5A842B9A740198
S1130830FA019191D8018C9185FFFCCFD5019C934D
S1130840EE15FF05B1F72B981C99FECF2A863B863F
S11308502A81352D40E050E03B8F2A8FEA8DFB8DB5
S11308602191FB8FEA8FD7013C912D3108F03EC0D6
S1130870FB01042E02C0EE0FFF1F0A94E2F7CF0122
S11308808323D1F0822F90E0FC01EE0FFF1FEE0FC7
S1130890FF1FEE0FFF1FE81BF90BEC0DFD1DA281DE
S11308A0B3812C91CB01068002C0880F991F0A9452
S11308B0E2F7822B8C931AC0822F90E0FC01EE0F9A
S11308C0FF1FEE0FFF1FEE0FFF1FE81BF90BEC0DD0
S11308D0FD1DA281B3812C91CB01068002C0880F3B
S11308E0991F0A94E2F7809582238C934F5F5F4FA0
S11308F04830510509F0B2CFD3018D913D018D31BE
S1130900C0F490E0FC01EE0FFF1FEE0FFF1FEE0F8F
S1130910FF1FE81BF90BEC0DFD1DA281B3812C9187
S1130920CB01068002C0880F991F0A94E2F7822B3C
S11309308C93EFE1FEE43197F1F700C00000A42DA1
S1130940B98121C08D31F8F490E0FC01EE0FFF1F56
S1130950EE0FFF1FEE0FFF1FE81BF90BCF018C0DED
S11309609D1DFC0142815381FA0120817B01FC0120
S1130970068002C0EE0CFF1C0A94E2F7C7018095C2
S11309808223FA0180838D918823E1F6332DAA8195
S1130990B52D288A21C08D31F8F490E0FC01EE0FCA
S11309A0FF1FEE0FFF1FEE0FFF1FE81BF90BCF0118
S11309B08C0D9D1DFC01E280F380F7012081AB01C9
S11309C0FC01068002C0440F551F0A94E2F7CA01D5
S11309D080958223F70180838D918823E1F64889ED
S11309E00F2EF5E0EF2EFF24F02D8E0C9F1C27E038
S11309F0621621E0720641F0A40144505040A42D37
S1130A00B981342D5A860DCF5885509300018C85B9
S1130A10809301019B8191509B83992309F471C1B7
S1130A20A2E0B1E0AF8BB88F8E809F80FC81F98FFC
S1130A30ED80E98647E051E05E874D876F2E7E2C7E
S1130A40DBCF9230A9F0933028F4992319F1913037
S1130A5049F517C0933021F0943021F51C9222C03F
S1130A60853010F01C921EC0FA0120812C931AC00C
S1130A708A3010F01C9216C0FA01359720812C930D
S1130A8011C08F3010F01C920DC0FA013A972081EA
S1130A902C9308C0843110F01C9204C0FA013F97D3
S1130AA020812C938F5F11964F5F5F4F893149F6F8
S1130AB0FF85FF2309F007C11EC18D31C8F490E002
S1130AC0FC01EE0FFF1FEE0FFF1FEE0FFF1FE81BD1
S1130AD0F90BEC0DFD1DA281B3812C91CB01068095
S1130AE002C0880F991F0A94E2F7809582238C93A1
S1130AF0D7018D917D01882301F72B9A7501FA01A5
S1130B009191D8018C9185FFFCCFD4019C93EE1573
S1130B10FF05B1F72B981C99FECF2B813C81A101D5
S1130B203B8F2A8FEA8DFB8D8191FB8FEA8FD70152
S1130B309C918D31E0F5FB01042E02C0EE0FFF1FE6
S1130B400A94E2F79F012923C9F090E0FC01EE0F1B
S1130B50FF1FEE0FFF1FEE0FFF1FE81BF90BEC0D3D
S1130B60FD1DA281B3812C91CB01068002C0880FA8
S1130B70991F0A94E2F7822B8C9319C090E0FC0130
S1130B80EE0FFF1FEE0FFF1FEE0FFF1FE81BF90B09
S1130B90EC0DFD1DA281B3812C91CB01068002C016
S1130BA0880F991F0A94E2F7809582238C934F5FF4
S1130BB05F4F4830510509F0B5CFD3018D913D0108
S1130BC08D31C0F490E0FC01EE0FFF1FEE0FFF1F0C
S1130BD0EE0FFF1FE81BF90BEC0DFD1DA281B38185
S1130BE02C91CB01068002C0880F991F0A94E2F76A
S1130BF0822B8C93EFE1FEE43197F1F700C0000003
S1130C0049815A811BC08D31C8F490E0FC01EE0F7C
S1130C10FF1FEE0FFF1FEE0FFF1FE81BF90BEC0D7C
S1130C20FD1DA281B3812C91CB01068002C0880FE7
S1130C30991F0A94E2F7809582238C93DA018D91AF
S1130C40AD01882301F74D815E811BC08D31C8F44D
S1130C5090E0FC01EE0FFF1FEE0FFF1FEE0FFF1FD2
S1130C60E81BF90BEC0DFD1DA281B3812C91CB0186
S1130C70068002C0880F991F0A94E2F780958223A8
S1130C808C93FA018191AF01882301F70F2EF5E0CF
S1130C90EF2EFF24F02DAE0CBF1C4614570431F088
S1130CA0A50144505040E980FA8022CFFA88F0929E
S1130CB000012B892093010148854F5F48875F8598
S1130CC0451781F418C018868F89888B988D998B65
S1130CD0AA85AB83BB85BC8322243324EC85ED83B6
S1130CE0FD85FE830F2EF0E9AF2EF2E0BF2EF02D2E
S1130CF068887988D5CF2C892F5F2C8B253009F50E
S1130D003AC14D845E844C873D871C8A4D895E8937
S1130D104C5E5F4F5E8B4D8B0F2EFEEBCF2EF1E0C2
S1130D20DF2EF02D61E070E000EC10E00F2EF6EC09
S1130D308F2E9924F02D6A8B7B8B598D598389854D
S1130D408A83ACE8B2E04D895E8980E09C8979CEE3
S1130D508D31C8F490E0FC01EE0FFF1FEE0FFF1F72
S1130D60EE0FFF1FE81BF90BEE0DFF1DA281B381EF
S1130D702C91CB01068002C0880F991F0A94E2F7D8
S1130D80809582238C93D6018D916D01882301F780
S1130D902B9A6501FA019191D8018C9185FFFCCFC2
S1130DA0D4019C93EC15FD05B1F72B981C99FECF4B
S1130DB0AA85BB85A1018D91F60190818D3108F042
S1130DC052C0FB01042E02C0EE0FFF1F0A94E2F78B
S1130DD09F01292321F190E0FC01EE0FFF1FEE0F8C
S1130DE0FF1FEE0FFF1FE81BF90BCF018E0D9F1D98
S1130DF09E8B8D8BFC010280F381E02DFF83EE83BB
S1130E002081CB01ED89FE89068002C0880F991FDD
S1130E100A94E2F7822BEE81FF81808324C090E064
S1130E20FC01EE0FFF1FEE0FFF1FEE0FFF1FE81B6D
S1130E30F90BCF018E0D9F1D9E8B8D8BFC010280C3
S1130E40F381E02DFF83EE832081CB01ED89FE89C0
S1130E50068002C0880F991F0A94E2F780958223C6
S1130E60EE81FF8180834F5F5F4F4830510509F069
S1130E70A2CFD3018D913D018D31C0F490E0FC01EE
S1130E80EE0FFF1FEE0FFF1FEE0FFF1FE81BF90B06
S1130E90EE0DFF1DA281B3812C91CB01068002C00F
S1130EA0880F991F0A94E2F7822B8C93EFE1FEE4FA
S1130EB03197F1F700C00000498159851BC08D317D
S1130EC0C8F490E0FC01EE0FFF1FEE0FFF1FEE0FC2
S1130ED0FF1FE81BF90BEE0DFF1DA281B3812C91BE
S1130EE0CB01068002C0880F991F0A94E2F780950F
S1130EF082238C93DA018D91AD01882301F74C850F
S1130F005D851BC08D31C8F490E0FC01EE0FFF1F1E
S1130F10EE0FFF1FEE0FFF1FE81BF90BEE0DFF1D79
S1130F20A281B3812C91CB01068002C0880F991F46
S1130F300A94E2F7809582238C93FA018191AF01A0
S1130F40882301F745E050E0A40EB51E461457046B
S1130F5031F0A50144505040C980D98414CF5B813D
S1130F60509300018C81809301019A8191509A835E
S1130F709923C1F420C0A2E3AA830F2EFEEBEF2E27
S1130F80F1E0FF2EF02D61E070E06B837C8300ECD8
S1130F9010E00F2EF6EC8F2E9924F02DD98C2224FC
S1130FA03324D9820F2EF0E9AF2EF2E0BF2EF02DBC
S1130FB06F88788CCECF6B960FB6F894DEBF0FBED9
S1130FC0CDBFDF91CF911F910F91FF90EF90DF90F4
S1130FD0CF90BF90AF909F908F907F906F905F90D5
S1130FE04F903F902F9008952F923F924F925F928F
S1130FF06F927F928F929F92AF92BF92CF92DF9225
S1131000EF92FF920F931F93CF93DF93CDB7DEB789
S113101061970FB6F894DEBF0FBECDBF9F878E8752
S11310206E83ECE8F2E0CF0149961192E817F907D4
S1131030E1F724E02B8782E091E08F8398870F2EDD
S1131040FEEBCF2EF1E0DF2EF02D00EC10E0DC0102
S11310501596BC83AB8389839A830F2EF7E04F2EBA
S1131060F1E05F2EF02D4BC14B85AC85BD856E85BF
S11310707F85242F30E0FB01E20FF31F50812457BA
S11310803D4F852F90E00A2E02C0959587950A94CE
S1131090E2F78523F90180834B5F493150F3FE81E8
S11310A0FF2309F006C116C18D31C8F490E0FC019C
S11310B0EE0FFF1FEE0FFF1FEE0FFF1FE81BF90BD4
S11310C0EC0DFD1DA281B3812C91C701068002C0E5
S11310D0880F991F0A94E2F7809582238C93DB0191
S11310E08D91BD01882301F72B9AB501FA019191E5
S11310F0D8018C9185FFFCCFD4019C93E617F707A8
S1131100B1F72B981C99FECFA101598A488AE88926
S1131110F9892191F98BE88BDB013C912D3108F0A1
S11311203EC0F701042E02C0EE0FFF1F0A94E2F73F
S1131130CF018323D1F0822F90E0FC01EE0FFF1F3B
S1131140EE0FFF1FEE0FFF1FE81BF90BEC0DFD1D4B
S1131150A281B3812C91C701068002C0880F991F18
S11311600A94E2F7822B8C931AC0822F90E0FC0140
S1131170EE0FFF1FEE0FFF1FEE0FFF1FE81BF90B13
S1131180EC0DFD1DA281B3812C91C701068002C024
S1131190880F991F0A94E2F7809582238C934F5FFE
S11311A05F4F4830510509F0B2CFD3018D913D0115
S11311B08D31C0F490E0FC01EE0FFF1FEE0FFF1F16
S11311C0EE0FFF1FE81BF90BEC0DFD1DA281B3818F
S11311D02C91C701068002C0880F991F0A94E2F778
S11311E0822B8C93EFE1FEE43197F1F700C000000D
S11311F049815A811BC08D31C8F490E0FC01EE0F87
S1131200FF1FEE0FFF1FEE0FFF1FE81BF90BEC0D86
S1131210FD1DA281B3812C91C701068002C0880FF5
S1131220991F0A94E2F7809582238C93DA018D91B9
S1131230AD01882301F7A2011BC08D31C8F490E0F1
S1131240FC01EE0FFF1FEE0FFF1FEE0FFF1FE81B49
S1131250F90BEC0DFD1DA281B3812C91C701068011
S113126002C0880F991F0A94E2F7809582238C9319
S1131270FA018191AF01882301F725E030E0A20E45
S1131280B31E8B819C816816790631F0A501445008
S1131290504069817A8123CF998590930001AA8572
S11312A0A0930101BD81BF5FBD83EE81BE1749F4E8
S11312B011C01D820F2EF6EC8F2E9924F02D2224BE
S11312C033246F8078840F2EF0E9AF2EF2E0BF2E26
S11312D0F02DDCCF2C853D85245030403D872C8774
S11312E08FEF2C3F380729F09B85993108F4BCCE49
S11312F0D6CEAB85A150AB87AA2309F41FC1E4E085
S1131300F0E0FD87EC87EE24FF24E394E986FA8677
S1131310EBCF8D31F8F490E0FC01EE0FFF1FEE0FE0
S1131320FF1FEE0FFF1FE81BF90BCF018E0D9F1D52
S1131330FC01C280D380F60120811B01FC010680E0
S113134002C0220C331C0A94E2F7C1018095822367
S1131350F60180838D918823E1F62B9A6401FA01CA
S11313609191D8018C9185FFFCCFD5019C93EC150C
S1131370FD05B1F72B981C99FECFD20140E050E057
S11313808D91F60190818D3108F04CC01B01042E23
S113139002C0220C331C0A94E2F79101292309F1BB
S11313A090E0FC01EE0FFF1FEE0FFF1FEE0FFF1F7B
S11313B0E81BF90B9F012E0D3F1D398B288BF9017A
S11313C022803380F1012081CB01E889F9890680EC
S11313D002C0880F991F0A94E2F7822BF1018083DF
S11313E021C090E0FC01EE0FFF1FEE0FFF1FEE0F78
S11313F0FF1FE81BF90B1F012E0C3F1C398A288A9A
S1131400F10122803380F1012081CB01E889F9893F
S1131410068002C0880F991F0A94E2F78095822300
S1131420F10180834F5F5F4F4830510509F0A8CF29
S1131430D3018D913D018D31C0F490E0FC01EE0F9C
S1131440FF1FEE0FFF1FEE0FFF1FE81BF90BEE0D42
S1131450FF1DA281B3812C91CB01068002C0880FAD
S1131460991F0A94E2F7822B8C93EFE1FEE4319703
S1131470F1F700C0000049815A811BC08D31C8F4C6
S113148090E0FC01EE0FFF1FEE0FFF1FEE0FFF1F9A
S1131490E81BF90BEE0DFF1DA281B3812C91CB014A
S11314A0068002C0880F991F0A94E2F78095822370
S11314B08C93DA018D91AD01882301F7A2011BC041
S11314C08D31C8F490E0FC01EE0FFF1FEE0FFF1FFB
S11314D0EE0FFF1FE81BF90BEE0DFF1DA281B38178
S11314E02C91CB01068002C0880F991F0A94E2F761
S11314F0809582238C93FA018191AF01882301F7AF
S11315000F2EF5E02F2E3324F02D820C931C27E0B0
S1131510621621E0720631F0A40144505040A981C2
S1131520BA8118CF3D81309300018E8180930101EF
S11315309B8191509B83992339F52FC0A2E3AB8300
S1131540EE85FF853496FF87EE870F2EFEEBEF2E98
S1131550F1E0FF2EF02D61E070E06D837E8300ECFE
S113156010E00F2EF6ECAF2EBB24F02D0F2EF2E080
S11315702F2EF1E03F2EF02D29823A820F2EF7E034
S11315804F2EF1E05F2EF02D0F2EF2E06F2EF1E0E2
S11315907F2EF02D8E849F84BFCF61960FB6F89472
S11315A0DEBF0FBECDBFDF91CF911F910F91FF9092
S11315B0EF90DF90CF90BF90AF909F908F907F90EF
S11315C06F905F904F903F902F9008952F923F928D
S11315D04F925F926F927F928F929F92AF92BF923F
S11315E0CF92DF92EF92FF920F931F93CF93DF93EB
S11315F0CDB7DEB76F970FB6F894DEBF0FBECDBF81
S11316009A8F898F6E878CE892E09E838D834996AA
S1131610ED81FE811192E817F907E1F79AE09C83C6
S1131620A98DBA8D1496BB87AA87E2E0F1E0EF8317
S1131630F8870F2EFEEBEF2EF1E0FF2EF02D01E0E8
S113164010E00C871D8760EC70E00F2EF6ECCF2EB7
S1131650DD24F02D0F2EF7E02F2EF1E03F2EF02D9C
S1131660F9832A823B828E2E37C18D3120F590E09A
S1131670FC01EE0FFF1FEE0FFF1FEE0FFF1FE81B15
S1131680F90BCF018E0D9F1D9F8F8E8FFC01028061
S1131690F381E02DFE8BED8B4081C801EE8DFF8D33
S11316A0068002C0880F991F0A94E2F7809584236C
S11316B0ED89FE8980838D918823B9F62B9AF901EF
S11316C095019191DB018C9185FFFCCFD6019C9310
S11316D0E217F307B1F7C9012B981C99FECF2F86A7
S11316E0388AAA81BB8140E050E09E8B8D8B2D917E
S11316F0ED89FE8930812D3108F054C0F801042EA3
S113170002C0EE0FFF1F0A94E2F7CF01832329F1F1
S1131710822F90E0FC01EE0FFF1FEE0FFF1FEE0F74
S1131720FF1FE81BF90BCF018E0D9F1D9F8F8E8F1E
S1131730FC0122813381F9019080C801EE8DFF8D77
S1131740068002C0880F991F0A94E2F79F8F8E8F3C
S11317508E8D8929F901808325C0822F90E0FC01B8
S1131760EE0FFF1FEE0FFF1FEE0FFF1FE81BF90B1D
S1131770CF018E0D9F1D9F8F8E8FFC01228133819F
S1131780F9019080C801EE8DFF8D068002C0880F9C
S1131790991F0A94E2F79F8F8E8F8E8D80958921F1
S11317A0F90180834F5F5F4F4830510509F09FCFA7
S11317B0D3018D913D018D31C0F490E0FC01EE0F19
S11317C0FF1FEE0FFF1FEE0FFF1FE81BF90BEE0DBF
S11317D0FF1DA281B3812C91C801068002C0880F2D
S11317E0991F0A94E2F7822B8C93EFE1FEE4319780
S11317F0F1F700C00000A82DB981382D21C08D312A
S1131800F8F490E0FC01EE0FFF1FEE0FFF1FEE0F48
S1131810FF1FE81BF90BCF018E0D9F1DFC014281B8
S11318205381FA0120814801FC01068002C0880C22
S1131830991C0A94E2F7C40180958223FA018083FB
S11318408D918823E1F6832E422D332DAA81BB810D
S113185026C08D3120F590E0FC01EE0FFF1FEE0F46
S1131860FF1FEE0FFF1FE81BF90BCF018E0D9F1D0D
S11318709F8F8E8FFC010280F381E02DFE8BED8B18
S11318802081C801EE8DFF8D068002C0880F991F4C
S11318900A94E2F780958223ED89FE8980838D91F5
S11318A08823B9F685E090E0A80EB91E97E0691682
S11318B091E0790631F0950124503040A82DB9818A
S11318C0FACEAC85A0930001BD85B0930101EC81F3
S11318D0E150EC83EE2399F082E091E08F8B988FB6
S11318E0AA84BB84BF81BB8FE885E9870F2EF7E00C
S11318F04F2EF1E05F2EF02D6B2E7E2EDCCF4A8B27
S11319003B8BE98DFA8D9F01AD81BE81F9018191F7
S11319109F018D930F2EF5EA8F2EF2E09F2EF02D6E
S11319208A169B0699F71C8A0F2EFEEBCF2EF1E048
S1131930DF2EF02D61E070E000EC10E00F2EF6ECED
S11319408F2E9924F02D2B8D2C8F89858D8F6D876B
S1131950798B51C1822F90E0ECE8F2E0E80FF91F97
S1131960840F951FDC018C91832380832B5F2931A5
S113197088F3BE85BB2309F007C11EC18D31C8F4AD
S113198090E0FC01EE0FFF1FEE0FFF1FEE0FFF1F95
S1131990E81BF90BEC0DFD1DA281B3812C91CB0149
S11319A0068002C0880F991F0A94E2F7809582236B
S11319B08C93F70181917F01882301F72B9A75019C
S11319C0FA019191D8018C9185FFFCCFD4019C93AD
S11319D0EE15FF05B1F72B981C99FECF2B813C81A6
S11319E0A1013F8F2E8FEE8DFF8D2191FF8FEE8F02
S11319F0D7013C912D3108F03EC0FB01042E02C0FA
S1131A00EE0FFF1F0A94E2F7CF018323D1F0822F58
S1131A1090E0FC01EE0FFF1FEE0FFF1FEE0FFF1F04
S1131A20E81BF90BEC0DFD1DA281B3812C91CB01B8
S1131A30068002C0880F991F0A94E2F7822B8C93C8
S1131A401AC0822F90E0FC01EE0FFF1FEE0FFF1F64
S1131A50EE0FFF1FE81BF90BEC0DFD1DA281B381F6
S1131A602C91CB01068002C0880F991F0A94E2F7DB
S1131A70809582238C934F5F5F4F4830510509F066
S1131A80B2CFD3018D913D018D31C0F490E0FC01C2
S1131A90EE0FFF1FEE0FFF1FEE0FFF1FE81BF90BEA
S1131AA0EC0DFD1DA281B3812C91CB01068002C0F7
S1131AB0880F991F0A94E2F7822B8C93EFE1FEE4DE
S1131AC03197F1F700C0000049815A811BC08D3164
S1131AD0C8F490E0FC01EE0FFF1FEE0FFF1FEE0FA6
S1131AE0FF1FE81BF90BEC0DFD1DA281B3812C91A6
S1131AF0CB01068002C0880F991F0A94E2F78095F3
S1131B0082238C93DA018D91AD01882301F74D81F5
S1131B105F811BC08D31C8F490E0FC01EE0FFF1F04
S1131B20EE0FFF1FEE0FFF1FE81BF90BEC0DFD1D61
S1131B30A281B3812C91CB01068002C0880F991F2A
S1131B400A94E2F7809582238C93FA018191AF0184
S1131B50882301F785E090E0A80EB91E641475048B
S1131B6031F0A50144505040E980FA8022CF9D8590
S1131B7090930001A989A0930101B885BF5FB8873C
S1131B80EE85BE1781F418C01886FF89FA87288D60
S1131B902C878F858B8398899C8322243324AA895C
S1131BA0AD83BB89BF830F2EF0E9AF2EF2E0BF2EC9
S1131BB0F02D6A847C84D5CFED89FE893896FE8B1E
S1131BC0ED8BE031F10589F0FC89F93108F0D1CED3
S1131BD08FE090E00D8802C0959587950A94E2F70E
S1131BE0382F2F2F498D5A8DB5CE2C892F5F2C8BF2
S1131BF0253009F41AC11E8A1D8A8C8D89839D8D16
S1131C009A83E2CF8D31C8F490E0FC01EE0FFF1F00
S1131C10EE0FFF1FEE0FFF1FE81BF90BEE0DFF1D6C
S1131C20A281B3812C91C801068002C0880F991F3C
S1131C300A94E2F7809582238C93D5018D915D01FE
S1131C40882301F72B9A5401FA019191DB018C91BD
S1131C5085FFFCCFD6019C93EA15FB05B1F72B98C1
S1131C601C99FECFAF85B889A1018D91F5019081B2
S1131C708D3108F052C0F801042E02C0EE0FFF1F90
S1131C800A94E2F79F01292321F190E0FC01EE0F71
S1131C90FF1FEE0FFF1FEE0FFF1FE81BF90BCF0115
S1131CA08E0D9F1D9B878A87FC010280F381E02DA6
S1131CB0FE83ED832081C801EA85FB85068002C08E
S1131CC0880F991F0A94E2F7822BED81FE818083AD
S1131CD024C090E0FC01EE0FFF1FEE0FFF1FEE0F7C
S1131CE0FF1FE81BF90BCF018E0D9F1D9B878A8771
S1131CF0FC010280F381E02DFE83ED832081C80185
S1131D00EA85FB85068002C0880F991F0A94E2F7D2
S1131D1080958223ED81FE8180834F5F5F4F483041
S1131D20510509F0A2CFD3018D913D018D31C0F44D
S1131D3090E0FC01EE0FFF1FEE0FFF1FEE0FFF1FE1
S1131D40E81BF90BEE0DFF1DA281B3812C91C80194
S1131D50068002C0880F991F0A94E2F7822B8C93A5
S1131D60EFE1FEE43197F1F700C0000049815985A5
S1131D701BC08D31C8F490E0FC01EE0FFF1FEE0F85
S1131D80FF1FEE0FFF1FE81BF90BEE0DFF1DA281D5
S1131D90B3812C91C801068002C0880F991F0A9450
S1131DA0E2F7809582238C93DA018D91AD0188232B
S1131DB001F74A895B891BC08D31C8F490E0FC01AE
S1131DC0EE0FFF1FEE0FFF1FEE0FFF1FE81BF90BB7
S1131DD0EE0DFF1DA281B3812C91C801068002C0C3
S1131DE0880F991F0A94E2F7809582238C93FA0155
S1131DF08191AF01882301F785E090E0880E991E58
S1131E006414750431F0A40144505040A980B9848D
S1131E1014CF9B8190930001AC81A0930101BA81FE
S1131E20B150BA83BB23C1F420C0E2E3EA830F2E8E
S1131E30FEEBEF2EF1E0FF2EF02D01E010E00B831E
S1131E401C8360EC70E00F2EF6ECCF2EDD24F02D19
S1131E509B8C2224332499820F2EF0E98F2EF2E0FA
S1131E609F2EF02D6F88788CCECF6F960FB6F89496
S1131E70DEBF0FBECDBFDF91CF911F910F91FF90B9
S1131E80EF90DF90CF90BF90AF909F908F907F9016
S1131E906F905F904F903F902F9008951F920F92F4
S1131EA00FB60F9211242F933F934F935F936F9329
S1131EB07F938F939F93AF93BF93CF93DF93EF93CE
S1131EC0FF9380918A028823A1F081E491E062E08B
S1131ED00E94B40088E291E062E00E94AE03CFE089
S1131EE0D1E0CE0162E00E94F407CE0162E00E94DC
S1131EF0E60A81E080938A02FF91EF91DF91CF910E
S1131F00BF91AF919F918F917F916F915F914F910D
S1131F103F912F910F900FBE0F901F901895CF9364
S1131F20DF9300D000D00F92CDB7DEB70E945F00E0
S1131F3099240F2EF5EA6F2EF1E07F2EF02D0F2E4F
S1131F40F2E02F2EF1E03F2EF02D822C39820F2E5D
S1131F50FEEBCF2EF1E0DF2EF02D61E070E06A831E
S1131F607B8300EC10E00F2EF6EC4F2E5524F02D61
S1131F70FAC08D31C8F490E0FC01EE0FFF1FEE0FA4
S1131F80FF1FEE0FFF1FE81BF90BEC0DFD1DA281D7
S1131F90B3812C91CB01068002C0880F991F0A944B
S1131FA0E2F7809582238C93DA018D91AD01882329
S1131FB001F72B9AC3010496F3013191D8012C91B6
S1131FC025FFFCCFD2013C93E817F907B1F7AA2407
S1131FD0BB246894A2F8A60CB71C2B981C99FECFBE
S1131FE087E091E040E050E09D838C83EC81FD81AB
S1131FF08191FD83EC83D5019C918D31E0F5FB014A
S1132000042E02C0EE0FFF1F0A94E2F79F0129235A
S1132010C9F090E0FC01EE0FFF1FEE0FFF1FEE0F63
S1132020FF1FE81BF90BEC0DFD1DA281B3812C9160
S1132030CB01068002C0880F991F0A94E2F7822B15
S11320408C9319C090E0FC01EE0FFF1FEE0FFF1FF1
S1132050EE0FFF1FE81BF90BEC0DFD1DA281B381F0
S11320602C91CB01068002C0880F991F0A94E2F7D5
S1132070809528232C934F5F5F4F4830510509F01A
S1132080B5CF85E090E0680E791EF101E90DF11DF0
S113209080818D31C0F490E0FC01EE0FFF1FEE0F44
S11320A0FF1FEE0FFF1FE81BF90BEC0DFD1DA281B6
S11320B0B3812C91CB01068002C0880F991F0A942A
S11320C0E2F7822B8C93AFE1BEE41197F1F700C0E5
S11320D00000D70121C08D31F8F490E0FC01EE0F2F
S11320E0FF1FEE0FFF1FEE0FFF1FE81BF90BCF01C1
S11320F08C0D9D1DFC0142815381FA0120817B01DD
S1132100FC01068002C0EE0CFF1C0A94E2F7C70132
S113211080952823FA0120838D918823E1F647E0F6
S113212051E01BC08D31C8F490E0FC01EE0FFF1F9D
S1132130EE0FFF1FEE0FFF1FE81BF90BEC0DFD1D4B
S1132140A281B3812C91CB01068002C0880F991F14
S11321500A94E2F7809528232C93DA018D91AD013E
S1132160882301F79394B4E0B91520F07101482D48
S113217059811ACFEA81E0930001FB81F0930101B8
S113218099240F2EF5EA6F2EF1E07F2EF02DEBCF80
S1072190F894FFCFED
S113219402001718191A1B05060B0C0D0E0F10005C
S11321A47F9617000021B91900002FDF17000021C2
S11321B4991100002F99F1000009E270000009123E
S11321C49000000F12700000091250000009E29000
S11321D400009677660000B999910000D9F7F100E0
S11321E400999591000096799600006E69000000AC
S11321F4919B000000F6FD000000989900000097F0
S113220499000000009F76000000B199000000DFEF
S11322147900000091190000009F160000007998CD
S1132224000000999800000079F8000000999800D3
S113223400007F98000F27E96EFF01291B91110FFD
S1132244271DF1FF01251991880F29E99EFF00003C
S11322540000000000270028002600062A002B00A6
S11322642900002A002B002900012A002B00290040
S1132274022A002B002900032A002B002900040051
S113228400000000000000000000000000240025FD
S113229400230006240025002300072A002B00291C
S11322A400052A002B002900062A002B0029000718
S11322B42400250023000024002500230001240019
S11322C42500230002240025002300032400250004
S11322D4230004240025002300050000000000005E
S11322E400000000000000000000000000000027BF
S11322F400280026000027002800260001270028C3
S113230400260002270028002600032700280026B0
S10D2314000427002800260005003D
S9030000FC
